{
  "contractName": "HydrogenCredit",
  "abi": [
    {
      "anonymous": false,
      "inputs": [
        {
          "indexed": false,
          "internalType": "uint256",
          "name": "id",
          "type": "uint256"
        },
        {
          "indexed": false,
          "internalType": "address",
          "name": "owner",
          "type": "address"
        },
        {
          "indexed": false,
          "internalType": "uint256",
          "name": "amount",
          "type": "uint256"
        },
        {
          "indexed": false,
          "internalType": "string",
          "name": "batchId",
          "type": "string"
        },
        {
          "indexed": false,
          "internalType": "string",
          "name": "metadataHash",
          "type": "string"
        }
      ],
      "name": "CreditIssued",
      "type": "event"
    },
    {
      "anonymous": false,
      "inputs": [
        {
          "indexed": false,
          "internalType": "uint256",
          "name": "id",
          "type": "uint256"
        },
        {
          "indexed": false,
          "internalType": "address",
          "name": "owner",
          "type": "address"
        },
        {
          "indexed": false,
          "internalType": "uint256",
          "name": "amount",
          "type": "uint256"
        },
        {
          "indexed": false,
          "internalType": "string",
          "name": "reason",
          "type": "string"
        }
      ],
      "name": "CreditRetired",
      "type": "event"
    },
    {
      "anonymous": false,
      "inputs": [
        {
          "indexed": false,
          "internalType": "uint256",
          "name": "id",
          "type": "uint256"
        },
        {
          "indexed": false,
          "internalType": "address",
          "name": "from",
          "type": "address"
        },
        {
          "indexed": false,
          "internalType": "address",
          "name": "to",
          "type": "address"
        },
        {
          "indexed": false,
          "internalType": "uint256",
          "name": "amount",
          "type": "uint256"
        }
      ],
      "name": "CreditTransferred",
      "type": "event"
    },
    {
      "inputs": [
        {
          "internalType": "uint256",
          "name": "",
          "type": "uint256"
        }
      ],
      "name": "credits",
      "outputs": [
        {
          "internalType": "uint256",
          "name": "id",
          "type": "uint256"
        },
        {
          "internalType": "address",
          "name": "owner",
          "type": "address"
        },
        {
          "internalType": "uint256",
          "name": "amount",
          "type": "uint256"
        },
        {
          "internalType": "string",
          "name": "batchId",
          "type": "string"
        },
        {
          "internalType": "string",
          "name": "metadataHash",
          "type": "string"
        },
        {
          "internalType": "bool",
          "name": "retired",
          "type": "bool"
        }
      ],
      "stateMutability": "view",
      "type": "function",
      "constant": true
    },
    {
      "inputs": [],
      "name": "nextId",
      "outputs": [
        {
          "internalType": "uint256",
          "name": "",
          "type": "uint256"
        }
      ],
      "stateMutability": "view",
      "type": "function",
      "constant": true
    },
    {
      "inputs": [
        {
          "internalType": "address",
          "name": "to",
          "type": "address"
        },
        {
          "internalType": "uint256",
          "name": "amount",
          "type": "uint256"
        },
        {
          "internalType": "string",
          "name": "batchId",
          "type": "string"
        },
        {
          "internalType": "string",
          "name": "metadataHash",
          "type": "string"
        }
      ],
      "name": "issueCredits",
      "outputs": [],
      "stateMutability": "nonpayable",
      "type": "function"
    },
    {
      "inputs": [
        {
          "internalType": "uint256",
          "name": "creditId",
          "type": "uint256"
        },
        {
          "internalType": "address",
          "name": "to",
          "type": "address"
        },
        {
          "internalType": "uint256",
          "name": "amount",
          "type": "uint256"
        }
      ],
      "name": "transfer",
      "outputs": [],
      "stateMutability": "nonpayable",
      "type": "function"
    },
    {
      "inputs": [
        {
          "internalType": "uint256",
          "name": "creditId",
          "type": "uint256"
        },
        {
          "internalType": "uint256",
          "name": "amount",
          "type": "uint256"
        },
        {
          "internalType": "string",
          "name": "reason",
          "type": "string"
        }
      ],
      "name": "retire",
      "outputs": [],
      "stateMutability": "nonpayable",
      "type": "function"
    }
  ],
  "bytecode": "0x608060405234801561000f575f80fd5b506113b28061001d5f395ff3fe608060405234801561000f575f80fd5b5060043610610055575f3560e01c8063036a1c221461005957806361b8ce8c1461008e578063f38fe880146100ac578063f4788ec1146100c8578063f8548e36146100e4575b5f80fd5b610073600480360381019061006e9190610997565b610100565b60405161008596959493929190610ab4565b60405180910390f35b61009661026f565b6040516100a39190610b21565b60405180910390f35b6100c660048036038101906100c19190610c90565b610274565b005b6100e260048036038101906100dd9190610d2c565b6103ce565b005b6100fe60048036038101906100f99190610d98565b610590565b005b6001602052805f5260405f205f91509050805f015490806001015f9054906101000a900473ffffffffffffffffffffffffffffffffffffffff169080600201549080600301805461015090610e15565b80601f016020809104026020016040519081016040528092919081815260200182805461017c90610e15565b80156101c75780601f1061019e576101008083540402835291602001916101c7565b820191905f5260205f20905b8154815290600101906020018083116101aa57829003601f168201915b5050505050908060040180546101dc90610e15565b80601f016020809104026020016040519081016040528092919081815260200182805461020890610e15565b80156102535780601f1061022a57610100808354040283529160200191610253565b820191905f5260205f20905b81548152906001019060200180831161023657829003601f168201915b505050505090806005015f9054906101000a900460ff16905086565b5f5481565b6040518060c001604052805f5481526020018573ffffffffffffffffffffffffffffffffffffffff1681526020018481526020018381526020018281526020015f151581525060015f805481526020019081526020015f205f820151815f01556020820151816001015f6101000a81548173ffffffffffffffffffffffffffffffffffffffff021916908373ffffffffffffffffffffffffffffffffffffffff1602179055506040820151816002015560608201518160030190816103399190610fe2565b50608082015181600401908161034f9190610fe2565b5060a0820151816005015f6101000a81548160ff0219169083151502179055509050507fbaa867bd62d382fb0c8f0cdbe349412d8c997ade2639d73d0e59cfa2293dc29b5f54858585856040516103aa9594939291906110b1565b60405180910390a15f808154809291906103c39061113d565b919050555050505050565b5f60015f8581526020019081526020015f2090503373ffffffffffffffffffffffffffffffffffffffff16816001015f9054906101000a900473ffffffffffffffffffffffffffffffffffffffff1673ffffffffffffffffffffffffffffffffffffffff1614610473576040517f08c379a000000000000000000000000000000000000000000000000000000000815260040161046a906111ce565b60405180910390fd5b806005015f9054906101000a900460ff16156104c4576040517f08c379a00000000000000000000000000000000000000000000000000000000081526004016104bb90611236565b60405180910390fd5b828160020154101561050b576040517f08c379a00000000000000000000000000000000000000000000000000000000081526004016105029061129e565b60405180910390fd5b82816002015f82825461051e91906112bc565b925050819055505f81600201540361054d576001816005015f6101000a81548160ff0219169083151502179055505b7f6e645d43ad6b4d6ac7990908850abab43295377322e3838a991d52d2addbc6db8433858560405161058294939291906112ef565b60405180910390a150505050565b5f60015f8581526020019081526020015f209050806005015f9054906101000a900460ff16156105f5576040517f08c379a00000000000000000000000000000000000000000000000000000000081526004016105ec90611236565b60405180910390fd5b3373ffffffffffffffffffffffffffffffffffffffff16816001015f9054906101000a900473ffffffffffffffffffffffffffffffffffffffff1673ffffffffffffffffffffffffffffffffffffffff1614610686576040517f08c379a000000000000000000000000000000000000000000000000000000000815260040161067d906111ce565b60405180910390fd5b81816002015410156106cd576040517f08c379a00000000000000000000000000000000000000000000000000000000081526004016106c49061129e565b60405180910390fd5b81816002015f8282546106e091906112bc565b925050819055506040518060c001604052805f5481526020018473ffffffffffffffffffffffffffffffffffffffff16815260200183815260200182600301805461072a90610e15565b80601f016020809104026020016040519081016040528092919081815260200182805461075690610e15565b80156107a15780601f10610778576101008083540402835291602001916107a1565b820191905f5260205f20905b81548152906001019060200180831161078457829003601f168201915b505050505081526020018260040180546107ba90610e15565b80601f01602080910402602001604051908101604052809291908181526020018280546107e690610e15565b80156108315780601f1061080857610100808354040283529160200191610831565b820191905f5260205f20905b81548152906001019060200180831161081457829003601f168201915b505050505081526020015f151581525060015f805481526020019081526020015f205f820151815f01556020820151816001015f6101000a81548173ffffffffffffffffffffffffffffffffffffffff021916908373ffffffffffffffffffffffffffffffffffffffff1602179055506040820151816002015560608201518160030190816108c09190610fe2565b5060808201518160040190816108d69190610fe2565b5060a0820151816005015f6101000a81548160ff0219169083151502179055509050507f7e65550eb596228315865d2268f12d8c62f668138881455c3c85891d53fcf6f85f5433858560405161092f9493929190611339565b60405180910390a15f808154809291906109489061113d565b919050555050505050565b5f604051905090565b5f80fd5b5f80fd5b5f819050919050565b61097681610964565b8114610980575f80fd5b50565b5f813590506109918161096d565b92915050565b5f602082840312156109ac576109ab61095c565b5b5f6109b984828501610983565b91505092915050565b6109cb81610964565b82525050565b5f73ffffffffffffffffffffffffffffffffffffffff82169050919050565b5f6109fa826109d1565b9050919050565b610a0a816109f0565b82525050565b5f81519050919050565b5f82825260208201905092915050565b5f5b83811015610a47578082015181840152602081019050610a2c565b5f8484015250505050565b5f601f19601f8301169050919050565b5f610a6c82610a10565b610a768185610a1a565b9350610a86818560208601610a2a565b610a8f81610a52565b840191505092915050565b5f8115159050919050565b610aae81610a9a565b82525050565b5f60c082019050610ac75f8301896109c2565b610ad46020830188610a01565b610ae160408301876109c2565b8181036060830152610af38186610a62565b90508181036080830152610b078185610a62565b9050610b1660a0830184610aa5565b979650505050505050565b5f602082019050610b345f8301846109c2565b92915050565b610b43816109f0565b8114610b4d575f80fd5b50565b5f81359050610b5e81610b3a565b92915050565b5f80fd5b5f80fd5b7f4e487b71000000000000000000000000000000000000000000000000000000005f52604160045260245ffd5b610ba282610a52565b810181811067ffffffffffffffff82111715610bc157610bc0610b6c565b5b80604052505050565b5f610bd3610953565b9050610bdf8282610b99565b919050565b5f67ffffffffffffffff821115610bfe57610bfd610b6c565b5b610c0782610a52565b9050602081019050919050565b828183375f83830152505050565b5f610c34610c2f84610be4565b610bca565b905082815260208101848484011115610c5057610c4f610b68565b5b610c5b848285610c14565b509392505050565b5f82601f830112610c7757610c76610b64565b5b8135610c87848260208601610c22565b91505092915050565b5f805f8060808587031215610ca857610ca761095c565b5b5f610cb587828801610b50565b9450506020610cc687828801610983565b935050604085013567ffffffffffffffff811115610ce757610ce6610960565b5b610cf387828801610c63565b925050606085013567ffffffffffffffff811115610d1457610d13610960565b5b610d2087828801610c63565b91505092959194509250565b5f805f60608486031215610d4357610d4261095c565b5b5f610d5086828701610983565b9350506020610d6186828701610983565b925050604084013567ffffffffffffffff811115610d8257610d81610960565b5b610d8e86828701610c63565b9150509250925092565b5f805f60608486031215610daf57610dae61095c565b5b5f610dbc86828701610983565b9350506020610dcd86828701610b50565b9250506040610dde86828701610983565b9150509250925092565b7f4e487b71000000000000000000000000000000000000000000000000000000005f52602260045260245ffd5b5f6002820490506001821680610e2c57607f821691505b602082108103610e3f57610e3e610de8565b5b50919050565b5f819050815f5260205f209050919050565b5f6020601f8301049050919050565b5f82821b905092915050565b5f60088302610ea17fffffffffffffffffffffffffffffffffffffffffffffffffffffffffffffffff82610e66565b610eab8683610e66565b95508019841693508086168417925050509392505050565b5f819050919050565b5f610ee6610ee1610edc84610964565b610ec3565b610964565b9050919050565b5f819050919050565b610eff83610ecc565b610f13610f0b82610eed565b848454610e72565b825550505050565b5f90565b610f27610f1b565b610f32818484610ef6565b505050565b5b81811015610f5557610f4a5f82610f1f565b600181019050610f38565b5050565b601f821115610f9a57610f6b81610e45565b610f7484610e57565b81016020851015610f83578190505b610f97610f8f85610e57565b830182610f37565b50505b505050565b5f82821c905092915050565b5f610fba5f1984600802610f9f565b1980831691505092915050565b5f610fd28383610fab565b9150826002028217905092915050565b610feb82610a10565b67ffffffffffffffff81111561100457611003610b6c565b5b61100e8254610e15565b611019828285610f59565b5f60209050601f83116001811461104a575f8415611038578287015190505b6110428582610fc7565b8655506110a9565b601f19841661105886610e45565b5f5b8281101561107f5784890151825560018201915060208501945060208101905061105a565b8683101561109c5784890151611098601f891682610fab565b8355505b6001600288020188555050505b505050505050565b5f60a0820190506110c45f8301886109c2565b6110d16020830187610a01565b6110de60408301866109c2565b81810360608301526110f08185610a62565b905081810360808301526111048184610a62565b90509695505050505050565b7f4e487b71000000000000000000000000000000000000000000000000000000005f52601160045260245ffd5b5f61114782610964565b91507fffffffffffffffffffffffffffffffffffffffffffffffffffffffffffffffff820361117957611178611110565b5b600182019050919050565b7f4e6f7420746865206f776e6572000000000000000000000000000000000000005f82015250565b5f6111b8600d83610a1a565b91506111c382611184565b602082019050919050565b5f6020820190508181035f8301526111e5816111ac565b9050919050565b7f43726564697420616c72656164792072657469726564000000000000000000005f82015250565b5f611220601683610a1a565b915061122b826111ec565b602082019050919050565b5f6020820190508181035f83015261124d81611214565b9050919050565b7f496e73756666696369656e7420637265646974730000000000000000000000005f82015250565b5f611288601483610a1a565b915061129382611254565b602082019050919050565b5f6020820190508181035f8301526112b58161127c565b9050919050565b5f6112c682610964565b91506112d183610964565b92508282039050818111156112e9576112e8611110565b5b92915050565b5f6080820190506113025f8301876109c2565b61130f6020830186610a01565b61131c60408301856109c2565b818103606083015261132e8184610a62565b905095945050505050565b5f60808201905061134c5f8301876109c2565b6113596020830186610a01565b6113666040830185610a01565b61137360608301846109c2565b9594505050505056fea26469706673582212208ea0756c2baf95b9fc21f559f255f8ac8457f7e8fcca939359f9287e5d3c7f1864736f6c63430008140033",
  "immutableReferences": {},
  "source": "// SPDX-License-Identifier: MIT\r\npragma solidity ^0.8.20;\r\n\r\ncontract HydrogenCredit {\r\n    struct Credit {\r\n        uint256 id;\r\n        address owner;\r\n        uint256 amount;\r\n        string batchId;\r\n        string metadataHash;\r\n        bool retired;\r\n    }\r\n\r\n    uint256 public nextId;\r\n    mapping(uint256 => Credit) public credits;\r\n\r\n    event CreditIssued(uint256 id, address owner, uint256 amount, string batchId, string metadataHash);\r\n    event CreditTransferred(uint256 id, address from, address to, uint256 amount);\r\n    event CreditRetired(uint256 id, address owner, uint256 amount, string reason);\r\n\r\n    function issueCredits(address to, uint256 amount, string memory batchId, string memory metadataHash) public {\r\n        credits[nextId] = Credit(nextId, to, amount, batchId, metadataHash, false);\r\n        emit CreditIssued(nextId, to, amount, batchId, metadataHash);\r\n        nextId++;\r\n    }\r\n\r\n    function transfer(uint256 creditId, address to, uint256 amount) public {\r\n        Credit storage c = credits[creditId];\r\n        require(!c.retired, \"Credit already retired\");\r\n        require(c.owner == msg.sender, \"Not the owner\");\r\n        require(c.amount >= amount, \"Insufficient credits\");\r\n\r\n        c.amount -= amount;\r\n        credits[nextId] = Credit(nextId, to, amount, c.batchId, c.metadataHash, false);\r\n        emit CreditTransferred(nextId, msg.sender, to, amount);\r\n        nextId++;\r\n    }\r\n\r\n    function retire(uint256 creditId, uint256 amount, string memory reason) public {\r\n        Credit storage c = credits[creditId];\r\n        require(c.owner == msg.sender, \"Not the owner\");\r\n        require(!c.retired, \"Credit already retired\");\r\n        require(c.amount >= amount, \"Insufficient credits\");\r\n\r\n        c.amount -= amount;\r\n        if (c.amount == 0) {\r\n            c.retired = true;\r\n        }\r\n\r\n        emit CreditRetired(creditId, msg.sender, amount, reason);\r\n    }\r\n}\r\n",
  "sourcePath": "C:\\Users\\DELL\\Desktop\\green-hydrogen-credit\\contracts\\HydrogenCredit.sol",
  "compiler": {
    "name": "solc",
    "version": "0.8.20+commit.a1b79de6.Emscripten.clang"
  },
  "schemaVersion": "3.4.16",
  "updatedAt": "2025-08-30T05:47:20.850Z",
  "networkType": "ethereum",
  "devdoc": {
    "kind": "dev",
    "methods": {},
    "version": 1
  },
  "userdoc": {
    "kind": "user",
    "methods": {},
    "version": 1
  }
}